{
	"data": {
		"bytecode": {
			"linkReferences": {},
			"object": "6080604052348015600e575f5ffd5b50611c148061001c5f395ff3fe608060405234801561000f575f5ffd5b5060043610610060575f3560e01c8063515e7cc51461006457806353e76f2c14610094578063699d5750146100b0578063a0ddb9b9146100ce578063a527604b146100ea578063f0c44b441461011a575b5f5ffd5b61007e60048036038101906100799190610f48565b61014a565b60405161008b9190610f8d565b60405180910390f35b6100ae60048036038101906100a991906110e2565b6102f6565b005b6100b861065b565b6040516100c59190611378565b60405180910390f35b6100e860048036038101906100e391906113bb565b61081a565b005b61010460048036038101906100ff9190611423565b610aa4565b604051610111919061149e565b60405180910390f35b610134600480360381019061012f91906114b7565b610c94565b6040516101419190611555565b60405180910390f35b5f33825f5f8373ffffffffffffffffffffffffffffffffffffffff1673ffffffffffffffffffffffffffffffffffffffff1681526020019081526020015f208054905081106101ce576040517f08c379a00000000000000000000000000000000000000000000000000000000081526004016101c5906115cf565b60405180910390fd5b5f5f5f3373ffffffffffffffffffffffffffffffffffffffff1673ffffffffffffffffffffffffffffffffffffffff1681526020019081526020015f2080549050905060018161021e919061161a565b851461025f576040517f08c379a0000000000000000000000000000000000000000000000000000000008152600401610256906116bd565b60405180910390fd5b5f5f3373ffffffffffffffffffffffffffffffffffffffff1673ffffffffffffffffffffffffffffffffffffffff1681526020019081526020015f20503373ffffffffffffffffffffffffffffffffffffffff167f1ad664193b8cc5715f310e51996dab4a0211cbb62d0e60ef891ff1351e5248b2866040516102e2919061149e565b60405180910390a260019350505050919050565b33825f5f8373ffffffffffffffffffffffffffffffffffffffff1673ffffffffffffffffffffffffffffffffffffffff1681526020019081526020015f20805490508110610379576040517f08c379a0000000000000000000000000000000000000000000000000000000008152600401610370906115cf565b60405180910390fd5b5f5f5f3373ffffffffffffffffffffffffffffffffffffffff1673ffffffffffffffffffffffffffffffffffffffff1681526020019081526020015f2085815481106103c8576103c76116db565b5b905f5260205f2090600302015f0180546103e190611735565b80601f016020809104026020016040519081016040528092919081815260200182805461040d90611735565b80156104585780601f1061042f57610100808354040283529160200191610458565b820191905f5260205f20905b81548152906001019060200180831161043b57829003601f168201915b50505050509050835f5f3373ffffffffffffffffffffffffffffffffffffffff1673ffffffffffffffffffffffffffffffffffffffff1681526020019081526020015f2086815481106104ae576104ad6116db565b5b905f5260205f2090600302015f0190816104c89190611905565b505f5f3373ffffffffffffffffffffffffffffffffffffffff1673ffffffffffffffffffffffffffffffffffffffff1681526020019081526020015f208581548110610517576105166116db565b5b905f5260205f2090600302016002015f815480929190610536906119d4565b91905055503373ffffffffffffffffffffffffffffffffffffffff167fded819c7e67629879d3a4090e7a41d240f8dbd15755f1657a39d345142c8eb41825f5f3373ffffffffffffffffffffffffffffffffffffffff1673ffffffffffffffffffffffffffffffffffffffff1681526020019081526020015f2088815481106105c2576105c16116db565b5b905f5260205f2090600302015f015f5f3373ffffffffffffffffffffffffffffffffffffffff1673ffffffffffffffffffffffffffffffffffffffff1681526020019081526020015f20898154811061061e5761061d6116db565b5b905f5260205f20906003020160010160149054906101000a900460ff168960405161064c9493929190611ae3565b60405180910390a25050505050565b60605f5f3373ffffffffffffffffffffffffffffffffffffffff1673ffffffffffffffffffffffffffffffffffffffff1681526020019081526020015f20805480602002602001604051908101604052809291908181526020015f905b82821015610811578382905f5260205f2090600302016040518060800160405290815f820180546106e890611735565b80601f016020809104026020016040519081016040528092919081815260200182805461071490611735565b801561075f5780601f106107365761010080835404028352916020019161075f565b820191905f5260205f20905b81548152906001019060200180831161074257829003601f168201915b50505050508152602001600182015f9054906101000a900473ffffffffffffffffffffffffffffffffffffffff1673ffffffffffffffffffffffffffffffffffffffff1673ffffffffffffffffffffffffffffffffffffffff1681526020016001820160149054906101000a900460ff1660038111156107e2576107e1611204565b5b60038111156107f4576107f3611204565b5b8152602001600282015481525050815260200190600101906106b8565b50505050905090565b33825f5f8373ffffffffffffffffffffffffffffffffffffffff1673ffffffffffffffffffffffffffffffffffffffff1681526020019081526020015f2080549050811061089d576040517f08c379a0000000000000000000000000000000000000000000000000000000008152600401610894906115cf565b60405180910390fd5b825f5f3373ffffffffffffffffffffffffffffffffffffffff1673ffffffffffffffffffffffffffffffffffffffff1681526020019081526020015f2085815481106108ec576108eb6116db565b5b905f5260205f20906003020160010160146101000a81548160ff0219169083600381111561091d5761091c611204565b5b02179055505f5f3373ffffffffffffffffffffffffffffffffffffffff1673ffffffffffffffffffffffffffffffffffffffff1681526020019081526020015f2084815481106109705761096f6116db565b5b905f5260205f2090600302016002015f81548092919061098f906119d4565b91905055503373ffffffffffffffffffffffffffffffffffffffff167fded819c7e67629879d3a4090e7a41d240f8dbd15755f1657a39d345142c8eb415f5f3373ffffffffffffffffffffffffffffffffffffffff1673ffffffffffffffffffffffffffffffffffffffff1681526020019081526020015f208681548110610a1a57610a196116db565b5b905f5260205f2090600302015f015f5f3373ffffffffffffffffffffffffffffffffffffffff1673ffffffffffffffffffffffffffffffffffffffff1681526020019081526020015f208781548110610a7657610a756116db565b5b905f5260205f2090600302015f018688604051610a969493929190611b34565b60405180910390a250505050565b5f5f60405180608001604052808681526020018573ffffffffffffffffffffffffffffffffffffffff168152602001846003811115610ae657610ae5611204565b5b81526020015f81525090505f5f3373ffffffffffffffffffffffffffffffffffffffff1673ffffffffffffffffffffffffffffffffffffffff1681526020019081526020015f2081908060018154018082558091505060019003905f5260205f2090600302015f909190919091505f820151815f019081610b679190611905565b506020820151816001015f6101000a81548173ffffffffffffffffffffffffffffffffffffffff021916908373ffffffffffffffffffffffffffffffffffffffff16021790555060408201518160010160146101000a81548160ff02191690836003811115610bd957610bd8611204565b5b021790555060608201518160020155505060015f5f3373ffffffffffffffffffffffffffffffffffffffff1673ffffffffffffffffffffffffffffffffffffffff1681526020019081526020015f2080549050610c36919061161a565b91503373ffffffffffffffffffffffffffffffffffffffff167ff7aeaa297142424f4347efdfd1f43ba8bdc7156e8333df0dc422090918200bf786868686604051610c849493929190611b94565b60405180910390a2509392505050565b610c9c610eb7565b82825f5f8373ffffffffffffffffffffffffffffffffffffffff1673ffffffffffffffffffffffffffffffffffffffff1681526020019081526020015f20805490508110610d1f576040517f08c379a0000000000000000000000000000000000000000000000000000000008152600401610d16906115cf565b60405180910390fd5b5f5f8673ffffffffffffffffffffffffffffffffffffffff1673ffffffffffffffffffffffffffffffffffffffff1681526020019081526020015f208481548110610d6d57610d6c6116db565b5b905f5260205f2090600302016040518060800160405290815f82018054610d9390611735565b80601f0160208091040260200160405190810160405280929190818152602001828054610dbf90611735565b8015610e0a5780601f10610de157610100808354040283529160200191610e0a565b820191905f5260205f20905b815481529060010190602001808311610ded57829003601f168201915b50505050508152602001600182015f9054906101000a900473ffffffffffffffffffffffffffffffffffffffff1673ffffffffffffffffffffffffffffffffffffffff1673ffffffffffffffffffffffffffffffffffffffff1681526020016001820160149054906101000a900460ff166003811115610e8d57610e8c611204565b5b6003811115610e9f57610e9e611204565b5b81526020016002820154815250509250505092915050565b6040518060800160405280606081526020015f73ffffffffffffffffffffffffffffffffffffffff1681526020015f6003811115610ef857610ef7611204565b5b81526020015f81525090565b5f604051905090565b5f5ffd5b5f5ffd5b5f819050919050565b610f2781610f15565b8114610f31575f5ffd5b50565b5f81359050610f4281610f1e565b92915050565b5f60208284031215610f5d57610f5c610f0d565b5b5f610f6a84828501610f34565b91505092915050565b5f8115159050919050565b610f8781610f73565b82525050565b5f602082019050610fa05f830184610f7e565b92915050565b5f5ffd5b5f5ffd5b5f601f19601f8301169050919050565b7f4e487b71000000000000000000000000000000000000000000000000000000005f52604160045260245ffd5b610ff482610fae565b810181811067ffffffffffffffff8211171561101357611012610fbe565b5b80604052505050565b5f611025610f04565b90506110318282610feb565b919050565b5f67ffffffffffffffff8211156110505761104f610fbe565b5b61105982610fae565b9050602081019050919050565b828183375f83830152505050565b5f61108661108184611036565b61101c565b9050828152602081018484840111156110a2576110a1610faa565b5b6110ad848285611066565b509392505050565b5f82601f8301126110c9576110c8610fa6565b5b81356110d9848260208601611074565b91505092915050565b5f5f604083850312156110f8576110f7610f0d565b5b5f61110585828601610f34565b925050602083013567ffffffffffffffff81111561112657611125610f11565b5b611132858286016110b5565b9150509250929050565b5f81519050919050565b5f82825260208201905092915050565b5f819050602082019050919050565b5f81519050919050565b5f82825260208201905092915050565b8281835e5f83830152505050565b5f61119782611165565b6111a1818561116f565b93506111b181856020860161117f565b6111ba81610fae565b840191505092915050565b5f73ffffffffffffffffffffffffffffffffffffffff82169050919050565b5f6111ee826111c5565b9050919050565b6111fe816111e4565b82525050565b7f4e487b71000000000000000000000000000000000000000000000000000000005f52602160045260245ffd5b6004811061124257611241611204565b5b50565b5f81905061125282611231565b919050565b5f61126182611245565b9050919050565b61127181611257565b82525050565b61128081610f15565b82525050565b5f608083015f8301518482035f8601526112a0828261118d565b91505060208301516112b560208601826111f5565b5060408301516112c86040860182611268565b5060608301516112db6060860182611277565b508091505092915050565b5f6112f18383611286565b905092915050565b5f602082019050919050565b5f61130f8261113c565b6113198185611146565b93508360208202850161132b85611156565b805f5b85811015611366578484038952815161134785826112e6565b9450611352836112f9565b925060208a0199505060018101905061132e565b50829750879550505050505092915050565b5f6020820190508181035f8301526113908184611305565b905092915050565b600481106113a4575f5ffd5b50565b5f813590506113b581611398565b92915050565b5f5f604083850312156113d1576113d0610f0d565b5b5f6113de85828601610f34565b92505060206113ef858286016113a7565b9150509250929050565b611402816111e4565b811461140c575f5ffd5b50565b5f8135905061141d816113f9565b92915050565b5f5f5f6060848603121561143a57611439610f0d565b5b5f84013567ffffffffffffffff81111561145757611456610f11565b5b611463868287016110b5565b93505060206114748682870161140f565b9250506040611485868287016113a7565b9150509250925092565b61149881610f15565b82525050565b5f6020820190506114b15f83018461148f565b92915050565b5f5f604083850312156114cd576114cc610f0d565b5b5f6114da8582860161140f565b92505060206114eb85828601610f34565b9150509250929050565b5f608083015f8301518482035f86015261150f828261118d565b915050602083015161152460208601826111f5565b5060408301516115376040860182611268565b50606083015161154a6060860182611277565b508091505092915050565b5f6020820190508181035f83015261156d81846114f5565b905092915050565b5f82825260208201905092915050565b7f696e76616c696420696e6465782e206f7574206f662072616e676500000000005f82015250565b5f6115b9601b83611575565b91506115c482611585565b602082019050919050565b5f6020820190508181035f8301526115e6816115ad565b9050919050565b7f4e487b71000000000000000000000000000000000000000000000000000000005f52601160045260245ffd5b5f61162482610f15565b915061162f83610f15565b9250828203905081811115611647576116466115ed565b5b92915050565b7f4f6e6c79206c61737420656c656d656e742063616e2062652064656c657420775f8201527f69746820706f7000000000000000000000000000000000000000000000000000602082015250565b5f6116a7602783611575565b91506116b28261164d565b604082019050919050565b5f6020820190508181035f8301526116d48161169b565b9050919050565b7f4e487b71000000000000000000000000000000000000000000000000000000005f52603260045260245ffd5b7f4e487b71000000000000000000000000000000000000000000000000000000005f52602260045260245ffd5b5f600282049050600182168061174c57607f821691505b60208210810361175f5761175e611708565b5b50919050565b5f819050815f5260205f209050919050565b5f6020601f8301049050919050565b5f82821b905092915050565b5f600883026117c17fffffffffffffffffffffffffffffffffffffffffffffffffffffffffffffffff82611786565b6117cb8683611786565b95508019841693508086168417925050509392505050565b5f819050919050565b5f6118066118016117fc84610f15565b6117e3565b610f15565b9050919050565b5f819050919050565b61181f836117ec565b61183361182b8261180d565b848454611792565b825550505050565b5f5f905090565b61184a61183b565b611855818484611816565b505050565b5b818110156118785761186d5f82611842565b60018101905061185b565b5050565b601f8211156118bd5761188e81611765565b61189784611777565b810160208510156118a6578190505b6118ba6118b285611777565b83018261185a565b50505b505050565b5f82821c905092915050565b5f6118dd5f19846008026118c2565b1980831691505092915050565b5f6118f583836118ce565b9150826002028217905092915050565b61190e82611165565b67ffffffffffffffff81111561192757611926610fbe565b5b6119318254611735565b61193c82828561187c565b5f60209050601f83116001811461196d575f841561195b578287015190505b61196585826118ea565b8655506119cc565b601f19841661197b86611765565b5f5b828110156119a25784890151825560018201915060208501945060208101905061197d565b868310156119bf57848901516119bb601f8916826118ce565b8355505b6001600288020188555050505b505050505050565b5f6119de82610f15565b91507fffffffffffffffffffffffffffffffffffffffffffffffffffffffffffffffff8203611a1057611a0f6115ed565b5b600182019050919050565b5f611a2582611165565b611a2f8185611575565b9350611a3f81856020860161117f565b611a4881610fae565b840191505092915050565b5f8154611a5f81611735565b611a698186611575565b9450600182165f8114611a835760018114611a9957611acb565b60ff198316865281151560200286019350611acb565b611aa285611765565b5f5b83811015611ac357815481890152600182019150602081019050611aa4565b808801955050505b50505092915050565b611add81611257565b82525050565b5f6080820190508181035f830152611afb8187611a1b565b90508181036020830152611b0f8186611a53565b9050611b1e6040830185611ad4565b611b2b606083018461148f565b95945050505050565b5f6080820190508181035f830152611b4c8187611a53565b90508181036020830152611b608186611a53565b9050611b6f6040830185611ad4565b611b7c606083018461148f565b95945050505050565b611b8e816111e4565b82525050565b5f6080820190508181035f830152611bac8187611a1b565b9050611bbb6020830186611b85565b611bc86040830185611ad4565b611bd5606083018461148f565b9594505050505056fea2646970667358221220387738cab0648e2e22e3c011ff60f5c30d2919195b6014ee4cdca88551e8baab64736f6c634300081e0033",
			"opcodes": "PUSH1 0x80 PUSH1 0x40 MSTORE CALLVALUE DUP1 ISZERO PUSH1 0xE JUMPI PUSH0 PUSH0 REVERT JUMPDEST POP PUSH2 0x1C14 DUP1 PUSH2 0x1C PUSH0 CODECOPY PUSH0 RETURN INVALID PUSH1 0x80 PUSH1 0x40 MSTORE CALLVALUE DUP1 ISZERO PUSH2 0xF JUMPI PUSH0 PUSH0 REVERT JUMPDEST POP PUSH1 0x4 CALLDATASIZE LT PUSH2 0x60 JUMPI PUSH0 CALLDATALOAD PUSH1 0xE0 SHR DUP1 PUSH4 0x515E7CC5 EQ PUSH2 0x64 JUMPI DUP1 PUSH4 0x53E76F2C EQ PUSH2 0x94 JUMPI DUP1 PUSH4 0x699D5750 EQ PUSH2 0xB0 JUMPI DUP1 PUSH4 0xA0DDB9B9 EQ PUSH2 0xCE JUMPI DUP1 PUSH4 0xA527604B EQ PUSH2 0xEA JUMPI DUP1 PUSH4 0xF0C44B44 EQ PUSH2 0x11A JUMPI JUMPDEST PUSH0 PUSH0 REVERT JUMPDEST PUSH2 0x7E PUSH1 0x4 DUP1 CALLDATASIZE SUB DUP2 ADD SWAP1 PUSH2 0x79 SWAP2 SWAP1 PUSH2 0xF48 JUMP JUMPDEST PUSH2 0x14A JUMP JUMPDEST PUSH1 0x40 MLOAD PUSH2 0x8B SWAP2 SWAP1 PUSH2 0xF8D JUMP JUMPDEST PUSH1 0x40 MLOAD DUP1 SWAP2 SUB SWAP1 RETURN JUMPDEST PUSH2 0xAE PUSH1 0x4 DUP1 CALLDATASIZE SUB DUP2 ADD SWAP1 PUSH2 0xA9 SWAP2 SWAP1 PUSH2 0x10E2 JUMP JUMPDEST PUSH2 0x2F6 JUMP JUMPDEST STOP JUMPDEST PUSH2 0xB8 PUSH2 0x65B JUMP JUMPDEST PUSH1 0x40 MLOAD PUSH2 0xC5 SWAP2 SWAP1 PUSH2 0x1378 JUMP JUMPDEST PUSH1 0x40 MLOAD DUP1 SWAP2 SUB SWAP1 RETURN JUMPDEST PUSH2 0xE8 PUSH1 0x4 DUP1 CALLDATASIZE SUB DUP2 ADD SWAP1 PUSH2 0xE3 SWAP2 SWAP1 PUSH2 0x13BB JUMP JUMPDEST PUSH2 0x81A JUMP JUMPDEST STOP JUMPDEST PUSH2 0x104 PUSH1 0x4 DUP1 CALLDATASIZE SUB DUP2 ADD SWAP1 PUSH2 0xFF SWAP2 SWAP1 PUSH2 0x1423 JUMP JUMPDEST PUSH2 0xAA4 JUMP JUMPDEST PUSH1 0x40 MLOAD PUSH2 0x111 SWAP2 SWAP1 PUSH2 0x149E JUMP JUMPDEST PUSH1 0x40 MLOAD DUP1 SWAP2 SUB SWAP1 RETURN JUMPDEST PUSH2 0x134 PUSH1 0x4 DUP1 CALLDATASIZE SUB DUP2 ADD SWAP1 PUSH2 0x12F SWAP2 SWAP1 PUSH2 0x14B7 JUMP JUMPDEST PUSH2 0xC94 JUMP JUMPDEST PUSH1 0x40 MLOAD PUSH2 0x141 SWAP2 SWAP1 PUSH2 0x1555 JUMP JUMPDEST PUSH1 0x40 MLOAD DUP1 SWAP2 SUB SWAP1 RETURN JUMPDEST PUSH0 CALLER DUP3 PUSH0 PUSH0 DUP4 PUSH20 0xFFFFFFFFFFFFFFFFFFFFFFFFFFFFFFFFFFFFFFFF AND PUSH20 0xFFFFFFFFFFFFFFFFFFFFFFFFFFFFFFFFFFFFFFFF AND DUP2 MSTORE PUSH1 0x20 ADD SWAP1 DUP2 MSTORE PUSH1 0x20 ADD PUSH0 KECCAK256 DUP1 SLOAD SWAP1 POP DUP2 LT PUSH2 0x1CE JUMPI PUSH1 0x40 MLOAD PUSH32 0x8C379A000000000000000000000000000000000000000000000000000000000 DUP2 MSTORE PUSH1 0x4 ADD PUSH2 0x1C5 SWAP1 PUSH2 0x15CF JUMP JUMPDEST PUSH1 0x40 MLOAD DUP1 SWAP2 SUB SWAP1 REVERT JUMPDEST PUSH0 PUSH0 PUSH0 CALLER PUSH20 0xFFFFFFFFFFFFFFFFFFFFFFFFFFFFFFFFFFFFFFFF AND PUSH20 0xFFFFFFFFFFFFFFFFFFFFFFFFFFFFFFFFFFFFFFFF AND DUP2 MSTORE PUSH1 0x20 ADD SWAP1 DUP2 MSTORE PUSH1 0x20 ADD PUSH0 KECCAK256 DUP1 SLOAD SWAP1 POP SWAP1 POP PUSH1 0x1 DUP2 PUSH2 0x21E SWAP2 SWAP1 PUSH2 0x161A JUMP JUMPDEST DUP6 EQ PUSH2 0x25F JUMPI PUSH1 0x40 MLOAD PUSH32 0x8C379A000000000000000000000000000000000000000000000000000000000 DUP2 MSTORE PUSH1 0x4 ADD PUSH2 0x256 SWAP1 PUSH2 0x16BD JUMP JUMPDEST PUSH1 0x40 MLOAD DUP1 SWAP2 SUB SWAP1 REVERT JUMPDEST PUSH0 PUSH0 CALLER PUSH20 0xFFFFFFFFFFFFFFFFFFFFFFFFFFFFFFFFFFFFFFFF AND PUSH20 0xFFFFFFFFFFFFFFFFFFFFFFFFFFFFFFFFFFFFFFFF AND DUP2 MSTORE PUSH1 0x20 ADD SWAP1 DUP2 MSTORE PUSH1 0x20 ADD PUSH0 KECCAK256 POP CALLER PUSH20 0xFFFFFFFFFFFFFFFFFFFFFFFFFFFFFFFFFFFFFFFF AND PUSH32 0x1AD664193B8CC5715F310E51996DAB4A0211CBB62D0E60EF891FF1351E5248B2 DUP7 PUSH1 0x40 MLOAD PUSH2 0x2E2 SWAP2 SWAP1 PUSH2 0x149E JUMP JUMPDEST PUSH1 0x40 MLOAD DUP1 SWAP2 SUB SWAP1 LOG2 PUSH1 0x1 SWAP4 POP POP POP POP SWAP2 SWAP1 POP JUMP JUMPDEST CALLER DUP3 PUSH0 PUSH0 DUP4 PUSH20 0xFFFFFFFFFFFFFFFFFFFFFFFFFFFFFFFFFFFFFFFF AND PUSH20 0xFFFFFFFFFFFFFFFFFFFFFFFFFFFFFFFFFFFFFFFF AND DUP2 MSTORE PUSH1 0x20 ADD SWAP1 DUP2 MSTORE PUSH1 0x20 ADD PUSH0 KECCAK256 DUP1 SLOAD SWAP1 POP DUP2 LT PUSH2 0x379 JUMPI PUSH1 0x40 MLOAD PUSH32 0x8C379A000000000000000000000000000000000000000000000000000000000 DUP2 MSTORE PUSH1 0x4 ADD PUSH2 0x370 SWAP1 PUSH2 0x15CF JUMP JUMPDEST PUSH1 0x40 MLOAD DUP1 SWAP2 SUB SWAP1 REVERT JUMPDEST PUSH0 PUSH0 PUSH0 CALLER PUSH20 0xFFFFFFFFFFFFFFFFFFFFFFFFFFFFFFFFFFFFFFFF AND PUSH20 0xFFFFFFFFFFFFFFFFFFFFFFFFFFFFFFFFFFFFFFFF AND DUP2 MSTORE PUSH1 0x20 ADD SWAP1 DUP2 MSTORE PUSH1 0x20 ADD PUSH0 KECCAK256 DUP6 DUP2 SLOAD DUP2 LT PUSH2 0x3C8 JUMPI PUSH2 0x3C7 PUSH2 0x16DB JUMP JUMPDEST JUMPDEST SWAP1 PUSH0 MSTORE PUSH1 0x20 PUSH0 KECCAK256 SWAP1 PUSH1 0x3 MUL ADD PUSH0 ADD DUP1 SLOAD PUSH2 0x3E1 SWAP1 PUSH2 0x1735 JUMP JUMPDEST DUP1 PUSH1 0x1F ADD PUSH1 0x20 DUP1 SWAP2 DIV MUL PUSH1 0x20 ADD PUSH1 0x40 MLOAD SWAP1 DUP2 ADD PUSH1 0x40 MSTORE DUP1 SWAP3 SWAP2 SWAP1 DUP2 DUP2 MSTORE PUSH1 0x20 ADD DUP3 DUP1 SLOAD PUSH2 0x40D SWAP1 PUSH2 0x1735 JUMP JUMPDEST DUP1 ISZERO PUSH2 0x458 JUMPI DUP1 PUSH1 0x1F LT PUSH2 0x42F JUMPI PUSH2 0x100 DUP1 DUP4 SLOAD DIV MUL DUP4 MSTORE SWAP2 PUSH1 0x20 ADD SWAP2 PUSH2 0x458 JUMP JUMPDEST DUP3 ADD SWAP2 SWAP1 PUSH0 MSTORE PUSH1 0x20 PUSH0 KECCAK256 SWAP1 JUMPDEST DUP2 SLOAD DUP2 MSTORE SWAP1 PUSH1 0x1 ADD SWAP1 PUSH1 0x20 ADD DUP1 DUP4 GT PUSH2 0x43B JUMPI DUP3 SWAP1 SUB PUSH1 0x1F AND DUP3 ADD SWAP2 JUMPDEST POP POP POP POP POP SWAP1 POP DUP4 PUSH0 PUSH0 CALLER PUSH20 0xFFFFFFFFFFFFFFFFFFFFFFFFFFFFFFFFFFFFFFFF AND PUSH20 0xFFFFFFFFFFFFFFFFFFFFFFFFFFFFFFFFFFFFFFFF AND DUP2 MSTORE PUSH1 0x20 ADD SWAP1 DUP2 MSTORE PUSH1 0x20 ADD PUSH0 KECCAK256 DUP7 DUP2 SLOAD DUP2 LT PUSH2 0x4AE JUMPI PUSH2 0x4AD PUSH2 0x16DB JUMP JUMPDEST JUMPDEST SWAP1 PUSH0 MSTORE PUSH1 0x20 PUSH0 KECCAK256 SWAP1 PUSH1 0x3 MUL ADD PUSH0 ADD SWAP1 DUP2 PUSH2 0x4C8 SWAP2 SWAP1 PUSH2 0x1905 JUMP JUMPDEST POP PUSH0 PUSH0 CALLER PUSH20 0xFFFFFFFFFFFFFFFFFFFFFFFFFFFFFFFFFFFFFFFF AND PUSH20 0xFFFFFFFFFFFFFFFFFFFFFFFFFFFFFFFFFFFFFFFF AND DUP2 MSTORE PUSH1 0x20 ADD SWAP1 DUP2 MSTORE PUSH1 0x20 ADD PUSH0 KECCAK256 DUP6 DUP2 SLOAD DUP2 LT PUSH2 0x517 JUMPI PUSH2 0x516 PUSH2 0x16DB JUMP JUMPDEST JUMPDEST SWAP1 PUSH0 MSTORE PUSH1 0x20 PUSH0 KECCAK256 SWAP1 PUSH1 0x3 MUL ADD PUSH1 0x2 ADD PUSH0 DUP2 SLOAD DUP1 SWAP3 SWAP2 SWAP1 PUSH2 0x536 SWAP1 PUSH2 0x19D4 JUMP JUMPDEST SWAP2 SWAP1 POP SSTORE POP CALLER PUSH20 0xFFFFFFFFFFFFFFFFFFFFFFFFFFFFFFFFFFFFFFFF AND PUSH32 0xDED819C7E67629879D3A4090E7A41D240F8DBD15755F1657A39D345142C8EB41 DUP3 PUSH0 PUSH0 CALLER PUSH20 0xFFFFFFFFFFFFFFFFFFFFFFFFFFFFFFFFFFFFFFFF AND PUSH20 0xFFFFFFFFFFFFFFFFFFFFFFFFFFFFFFFFFFFFFFFF AND DUP2 MSTORE PUSH1 0x20 ADD SWAP1 DUP2 MSTORE PUSH1 0x20 ADD PUSH0 KECCAK256 DUP9 DUP2 SLOAD DUP2 LT PUSH2 0x5C2 JUMPI PUSH2 0x5C1 PUSH2 0x16DB JUMP JUMPDEST JUMPDEST SWAP1 PUSH0 MSTORE PUSH1 0x20 PUSH0 KECCAK256 SWAP1 PUSH1 0x3 MUL ADD PUSH0 ADD PUSH0 PUSH0 CALLER PUSH20 0xFFFFFFFFFFFFFFFFFFFFFFFFFFFFFFFFFFFFFFFF AND PUSH20 0xFFFFFFFFFFFFFFFFFFFFFFFFFFFFFFFFFFFFFFFF AND DUP2 MSTORE PUSH1 0x20 ADD SWAP1 DUP2 MSTORE PUSH1 0x20 ADD PUSH0 KECCAK256 DUP10 DUP2 SLOAD DUP2 LT PUSH2 0x61E JUMPI PUSH2 0x61D PUSH2 0x16DB JUMP JUMPDEST JUMPDEST SWAP1 PUSH0 MSTORE PUSH1 0x20 PUSH0 KECCAK256 SWAP1 PUSH1 0x3 MUL ADD PUSH1 0x1 ADD PUSH1 0x14 SWAP1 SLOAD SWAP1 PUSH2 0x100 EXP SWAP1 DIV PUSH1 0xFF AND DUP10 PUSH1 0x40 MLOAD PUSH2 0x64C SWAP5 SWAP4 SWAP3 SWAP2 SWAP1 PUSH2 0x1AE3 JUMP JUMPDEST PUSH1 0x40 MLOAD DUP1 SWAP2 SUB SWAP1 LOG2 POP POP POP POP POP JUMP JUMPDEST PUSH1 0x60 PUSH0 PUSH0 CALLER PUSH20 0xFFFFFFFFFFFFFFFFFFFFFFFFFFFFFFFFFFFFFFFF AND PUSH20 0xFFFFFFFFFFFFFFFFFFFFFFFFFFFFFFFFFFFFFFFF AND DUP2 MSTORE PUSH1 0x20 ADD SWAP1 DUP2 MSTORE PUSH1 0x20 ADD PUSH0 KECCAK256 DUP1 SLOAD DUP1 PUSH1 0x20 MUL PUSH1 0x20 ADD PUSH1 0x40 MLOAD SWAP1 DUP2 ADD PUSH1 0x40 MSTORE DUP1 SWAP3 SWAP2 SWAP1 DUP2 DUP2 MSTORE PUSH1 0x20 ADD PUSH0 SWAP1 JUMPDEST DUP3 DUP3 LT ISZERO PUSH2 0x811 JUMPI DUP4 DUP3 SWAP1 PUSH0 MSTORE PUSH1 0x20 PUSH0 KECCAK256 SWAP1 PUSH1 0x3 MUL ADD PUSH1 0x40 MLOAD DUP1 PUSH1 0x80 ADD PUSH1 0x40 MSTORE SWAP1 DUP2 PUSH0 DUP3 ADD DUP1 SLOAD PUSH2 0x6E8 SWAP1 PUSH2 0x1735 JUMP JUMPDEST DUP1 PUSH1 0x1F ADD PUSH1 0x20 DUP1 SWAP2 DIV MUL PUSH1 0x20 ADD PUSH1 0x40 MLOAD SWAP1 DUP2 ADD PUSH1 0x40 MSTORE DUP1 SWAP3 SWAP2 SWAP1 DUP2 DUP2 MSTORE PUSH1 0x20 ADD DUP3 DUP1 SLOAD PUSH2 0x714 SWAP1 PUSH2 0x1735 JUMP JUMPDEST DUP1 ISZERO PUSH2 0x75F JUMPI DUP1 PUSH1 0x1F LT PUSH2 0x736 JUMPI PUSH2 0x100 DUP1 DUP4 SLOAD DIV MUL DUP4 MSTORE SWAP2 PUSH1 0x20 ADD SWAP2 PUSH2 0x75F JUMP JUMPDEST DUP3 ADD SWAP2 SWAP1 PUSH0 MSTORE PUSH1 0x20 PUSH0 KECCAK256 SWAP1 JUMPDEST DUP2 SLOAD DUP2 MSTORE SWAP1 PUSH1 0x1 ADD SWAP1 PUSH1 0x20 ADD DUP1 DUP4 GT PUSH2 0x742 JUMPI DUP3 SWAP1 SUB PUSH1 0x1F AND DUP3 ADD SWAP2 JUMPDEST POP POP POP POP POP DUP2 MSTORE PUSH1 0x20 ADD PUSH1 0x1 DUP3 ADD PUSH0 SWAP1 SLOAD SWAP1 PUSH2 0x100 EXP SWAP1 DIV PUSH20 0xFFFFFFFFFFFFFFFFFFFFFFFFFFFFFFFFFFFFFFFF AND PUSH20 0xFFFFFFFFFFFFFFFFFFFFFFFFFFFFFFFFFFFFFFFF AND PUSH20 0xFFFFFFFFFFFFFFFFFFFFFFFFFFFFFFFFFFFFFFFF AND DUP2 MSTORE PUSH1 0x20 ADD PUSH1 0x1 DUP3 ADD PUSH1 0x14 SWAP1 SLOAD SWAP1 PUSH2 0x100 EXP SWAP1 DIV PUSH1 0xFF AND PUSH1 0x3 DUP2 GT ISZERO PUSH2 0x7E2 JUMPI PUSH2 0x7E1 PUSH2 0x1204 JUMP JUMPDEST JUMPDEST PUSH1 0x3 DUP2 GT ISZERO PUSH2 0x7F4 JUMPI PUSH2 0x7F3 PUSH2 0x1204 JUMP JUMPDEST JUMPDEST DUP2 MSTORE PUSH1 0x20 ADD PUSH1 0x2 DUP3 ADD SLOAD DUP2 MSTORE POP POP DUP2 MSTORE PUSH1 0x20 ADD SWAP1 PUSH1 0x1 ADD SWAP1 PUSH2 0x6B8 JUMP JUMPDEST POP POP POP POP SWAP1 POP SWAP1 JUMP JUMPDEST CALLER DUP3 PUSH0 PUSH0 DUP4 PUSH20 0xFFFFFFFFFFFFFFFFFFFFFFFFFFFFFFFFFFFFFFFF AND PUSH20 0xFFFFFFFFFFFFFFFFFFFFFFFFFFFFFFFFFFFFFFFF AND DUP2 MSTORE PUSH1 0x20 ADD SWAP1 DUP2 MSTORE PUSH1 0x20 ADD PUSH0 KECCAK256 DUP1 SLOAD SWAP1 POP DUP2 LT PUSH2 0x89D JUMPI PUSH1 0x40 MLOAD PUSH32 0x8C379A000000000000000000000000000000000000000000000000000000000 DUP2 MSTORE PUSH1 0x4 ADD PUSH2 0x894 SWAP1 PUSH2 0x15CF JUMP JUMPDEST PUSH1 0x40 MLOAD DUP1 SWAP2 SUB SWAP1 REVERT JUMPDEST DUP3 PUSH0 PUSH0 CALLER PUSH20 0xFFFFFFFFFFFFFFFFFFFFFFFFFFFFFFFFFFFFFFFF AND PUSH20 0xFFFFFFFFFFFFFFFFFFFFFFFFFFFFFFFFFFFFFFFF AND DUP2 MSTORE PUSH1 0x20 ADD SWAP1 DUP2 MSTORE PUSH1 0x20 ADD PUSH0 KECCAK256 DUP6 DUP2 SLOAD DUP2 LT PUSH2 0x8EC JUMPI PUSH2 0x8EB PUSH2 0x16DB JUMP JUMPDEST JUMPDEST SWAP1 PUSH0 MSTORE PUSH1 0x20 PUSH0 KECCAK256 SWAP1 PUSH1 0x3 MUL ADD PUSH1 0x1 ADD PUSH1 0x14 PUSH2 0x100 EXP DUP2 SLOAD DUP2 PUSH1 0xFF MUL NOT AND SWAP1 DUP4 PUSH1 0x3 DUP2 GT ISZERO PUSH2 0x91D JUMPI PUSH2 0x91C PUSH2 0x1204 JUMP JUMPDEST JUMPDEST MUL OR SWAP1 SSTORE POP PUSH0 PUSH0 CALLER PUSH20 0xFFFFFFFFFFFFFFFFFFFFFFFFFFFFFFFFFFFFFFFF AND PUSH20 0xFFFFFFFFFFFFFFFFFFFFFFFFFFFFFFFFFFFFFFFF AND DUP2 MSTORE PUSH1 0x20 ADD SWAP1 DUP2 MSTORE PUSH1 0x20 ADD PUSH0 KECCAK256 DUP5 DUP2 SLOAD DUP2 LT PUSH2 0x970 JUMPI PUSH2 0x96F PUSH2 0x16DB JUMP JUMPDEST JUMPDEST SWAP1 PUSH0 MSTORE PUSH1 0x20 PUSH0 KECCAK256 SWAP1 PUSH1 0x3 MUL ADD PUSH1 0x2 ADD PUSH0 DUP2 SLOAD DUP1 SWAP3 SWAP2 SWAP1 PUSH2 0x98F SWAP1 PUSH2 0x19D4 JUMP JUMPDEST SWAP2 SWAP1 POP SSTORE POP CALLER PUSH20 0xFFFFFFFFFFFFFFFFFFFFFFFFFFFFFFFFFFFFFFFF AND PUSH32 0xDED819C7E67629879D3A4090E7A41D240F8DBD15755F1657A39D345142C8EB41 PUSH0 PUSH0 CALLER PUSH20 0xFFFFFFFFFFFFFFFFFFFFFFFFFFFFFFFFFFFFFFFF AND PUSH20 0xFFFFFFFFFFFFFFFFFFFFFFFFFFFFFFFFFFFFFFFF AND DUP2 MSTORE PUSH1 0x20 ADD SWAP1 DUP2 MSTORE PUSH1 0x20 ADD PUSH0 KECCAK256 DUP7 DUP2 SLOAD DUP2 LT PUSH2 0xA1A JUMPI PUSH2 0xA19 PUSH2 0x16DB JUMP JUMPDEST JUMPDEST SWAP1 PUSH0 MSTORE PUSH1 0x20 PUSH0 KECCAK256 SWAP1 PUSH1 0x3 MUL ADD PUSH0 ADD PUSH0 PUSH0 CALLER PUSH20 0xFFFFFFFFFFFFFFFFFFFFFFFFFFFFFFFFFFFFFFFF AND PUSH20 0xFFFFFFFFFFFFFFFFFFFFFFFFFFFFFFFFFFFFFFFF AND DUP2 MSTORE PUSH1 0x20 ADD SWAP1 DUP2 MSTORE PUSH1 0x20 ADD PUSH0 KECCAK256 DUP8 DUP2 SLOAD DUP2 LT PUSH2 0xA76 JUMPI PUSH2 0xA75 PUSH2 0x16DB JUMP JUMPDEST JUMPDEST SWAP1 PUSH0 MSTORE PUSH1 0x20 PUSH0 KECCAK256 SWAP1 PUSH1 0x3 MUL ADD PUSH0 ADD DUP7 DUP9 PUSH1 0x40 MLOAD PUSH2 0xA96 SWAP5 SWAP4 SWAP3 SWAP2 SWAP1 PUSH2 0x1B34 JUMP JUMPDEST PUSH1 0x40 MLOAD DUP1 SWAP2 SUB SWAP1 LOG2 POP POP POP POP JUMP JUMPDEST PUSH0 PUSH0 PUSH1 0x40 MLOAD DUP1 PUSH1 0x80 ADD PUSH1 0x40 MSTORE DUP1 DUP7 DUP2 MSTORE PUSH1 0x20 ADD DUP6 PUSH20 0xFFFFFFFFFFFFFFFFFFFFFFFFFFFFFFFFFFFFFFFF AND DUP2 MSTORE PUSH1 0x20 ADD DUP5 PUSH1 0x3 DUP2 GT ISZERO PUSH2 0xAE6 JUMPI PUSH2 0xAE5 PUSH2 0x1204 JUMP JUMPDEST JUMPDEST DUP2 MSTORE PUSH1 0x20 ADD PUSH0 DUP2 MSTORE POP SWAP1 POP PUSH0 PUSH0 CALLER PUSH20 0xFFFFFFFFFFFFFFFFFFFFFFFFFFFFFFFFFFFFFFFF AND PUSH20 0xFFFFFFFFFFFFFFFFFFFFFFFFFFFFFFFFFFFFFFFF AND DUP2 MSTORE PUSH1 0x20 ADD SWAP1 DUP2 MSTORE PUSH1 0x20 ADD PUSH0 KECCAK256 DUP2 SWAP1 DUP1 PUSH1 0x1 DUP2 SLOAD ADD DUP1 DUP3 SSTORE DUP1 SWAP2 POP POP PUSH1 0x1 SWAP1 SUB SWAP1 PUSH0 MSTORE PUSH1 0x20 PUSH0 KECCAK256 SWAP1 PUSH1 0x3 MUL ADD PUSH0 SWAP1 SWAP2 SWAP1 SWAP2 SWAP1 SWAP2 POP PUSH0 DUP3 ADD MLOAD DUP2 PUSH0 ADD SWAP1 DUP2 PUSH2 0xB67 SWAP2 SWAP1 PUSH2 0x1905 JUMP JUMPDEST POP PUSH1 0x20 DUP3 ADD MLOAD DUP2 PUSH1 0x1 ADD PUSH0 PUSH2 0x100 EXP DUP2 SLOAD DUP2 PUSH20 0xFFFFFFFFFFFFFFFFFFFFFFFFFFFFFFFFFFFFFFFF MUL NOT AND SWAP1 DUP4 PUSH20 0xFFFFFFFFFFFFFFFFFFFFFFFFFFFFFFFFFFFFFFFF AND MUL OR SWAP1 SSTORE POP PUSH1 0x40 DUP3 ADD MLOAD DUP2 PUSH1 0x1 ADD PUSH1 0x14 PUSH2 0x100 EXP DUP2 SLOAD DUP2 PUSH1 0xFF MUL NOT AND SWAP1 DUP4 PUSH1 0x3 DUP2 GT ISZERO PUSH2 0xBD9 JUMPI PUSH2 0xBD8 PUSH2 0x1204 JUMP JUMPDEST JUMPDEST MUL OR SWAP1 SSTORE POP PUSH1 0x60 DUP3 ADD MLOAD DUP2 PUSH1 0x2 ADD SSTORE POP POP PUSH1 0x1 PUSH0 PUSH0 CALLER PUSH20 0xFFFFFFFFFFFFFFFFFFFFFFFFFFFFFFFFFFFFFFFF AND PUSH20 0xFFFFFFFFFFFFFFFFFFFFFFFFFFFFFFFFFFFFFFFF AND DUP2 MSTORE PUSH1 0x20 ADD SWAP1 DUP2 MSTORE PUSH1 0x20 ADD PUSH0 KECCAK256 DUP1 SLOAD SWAP1 POP PUSH2 0xC36 SWAP2 SWAP1 PUSH2 0x161A JUMP JUMPDEST SWAP2 POP CALLER PUSH20 0xFFFFFFFFFFFFFFFFFFFFFFFFFFFFFFFFFFFFFFFF AND PUSH32 0xF7AEAA297142424F4347EFDFD1F43BA8BDC7156E8333DF0DC422090918200BF7 DUP7 DUP7 DUP7 DUP7 PUSH1 0x40 MLOAD PUSH2 0xC84 SWAP5 SWAP4 SWAP3 SWAP2 SWAP1 PUSH2 0x1B94 JUMP JUMPDEST PUSH1 0x40 MLOAD DUP1 SWAP2 SUB SWAP1 LOG2 POP SWAP4 SWAP3 POP POP POP JUMP JUMPDEST PUSH2 0xC9C PUSH2 0xEB7 JUMP JUMPDEST DUP3 DUP3 PUSH0 PUSH0 DUP4 PUSH20 0xFFFFFFFFFFFFFFFFFFFFFFFFFFFFFFFFFFFFFFFF AND PUSH20 0xFFFFFFFFFFFFFFFFFFFFFFFFFFFFFFFFFFFFFFFF AND DUP2 MSTORE PUSH1 0x20 ADD SWAP1 DUP2 MSTORE PUSH1 0x20 ADD PUSH0 KECCAK256 DUP1 SLOAD SWAP1 POP DUP2 LT PUSH2 0xD1F JUMPI PUSH1 0x40 MLOAD PUSH32 0x8C379A000000000000000000000000000000000000000000000000000000000 DUP2 MSTORE PUSH1 0x4 ADD PUSH2 0xD16 SWAP1 PUSH2 0x15CF JUMP JUMPDEST PUSH1 0x40 MLOAD DUP1 SWAP2 SUB SWAP1 REVERT JUMPDEST PUSH0 PUSH0 DUP7 PUSH20 0xFFFFFFFFFFFFFFFFFFFFFFFFFFFFFFFFFFFFFFFF AND PUSH20 0xFFFFFFFFFFFFFFFFFFFFFFFFFFFFFFFFFFFFFFFF AND DUP2 MSTORE PUSH1 0x20 ADD SWAP1 DUP2 MSTORE PUSH1 0x20 ADD PUSH0 KECCAK256 DUP5 DUP2 SLOAD DUP2 LT PUSH2 0xD6D JUMPI PUSH2 0xD6C PUSH2 0x16DB JUMP JUMPDEST JUMPDEST SWAP1 PUSH0 MSTORE PUSH1 0x20 PUSH0 KECCAK256 SWAP1 PUSH1 0x3 MUL ADD PUSH1 0x40 MLOAD DUP1 PUSH1 0x80 ADD PUSH1 0x40 MSTORE SWAP1 DUP2 PUSH0 DUP3 ADD DUP1 SLOAD PUSH2 0xD93 SWAP1 PUSH2 0x1735 JUMP JUMPDEST DUP1 PUSH1 0x1F ADD PUSH1 0x20 DUP1 SWAP2 DIV MUL PUSH1 0x20 ADD PUSH1 0x40 MLOAD SWAP1 DUP2 ADD PUSH1 0x40 MSTORE DUP1 SWAP3 SWAP2 SWAP1 DUP2 DUP2 MSTORE PUSH1 0x20 ADD DUP3 DUP1 SLOAD PUSH2 0xDBF SWAP1 PUSH2 0x1735 JUMP JUMPDEST DUP1 ISZERO PUSH2 0xE0A JUMPI DUP1 PUSH1 0x1F LT PUSH2 0xDE1 JUMPI PUSH2 0x100 DUP1 DUP4 SLOAD DIV MUL DUP4 MSTORE SWAP2 PUSH1 0x20 ADD SWAP2 PUSH2 0xE0A JUMP JUMPDEST DUP3 ADD SWAP2 SWAP1 PUSH0 MSTORE PUSH1 0x20 PUSH0 KECCAK256 SWAP1 JUMPDEST DUP2 SLOAD DUP2 MSTORE SWAP1 PUSH1 0x1 ADD SWAP1 PUSH1 0x20 ADD DUP1 DUP4 GT PUSH2 0xDED JUMPI DUP3 SWAP1 SUB PUSH1 0x1F AND DUP3 ADD SWAP2 JUMPDEST POP POP POP POP POP DUP2 MSTORE PUSH1 0x20 ADD PUSH1 0x1 DUP3 ADD PUSH0 SWAP1 SLOAD SWAP1 PUSH2 0x100 EXP SWAP1 DIV PUSH20 0xFFFFFFFFFFFFFFFFFFFFFFFFFFFFFFFFFFFFFFFF AND PUSH20 0xFFFFFFFFFFFFFFFFFFFFFFFFFFFFFFFFFFFFFFFF AND PUSH20 0xFFFFFFFFFFFFFFFFFFFFFFFFFFFFFFFFFFFFFFFF AND DUP2 MSTORE PUSH1 0x20 ADD PUSH1 0x1 DUP3 ADD PUSH1 0x14 SWAP1 SLOAD SWAP1 PUSH2 0x100 EXP SWAP1 DIV PUSH1 0xFF AND PUSH1 0x3 DUP2 GT ISZERO PUSH2 0xE8D JUMPI PUSH2 0xE8C PUSH2 0x1204 JUMP JUMPDEST JUMPDEST PUSH1 0x3 DUP2 GT ISZERO PUSH2 0xE9F JUMPI PUSH2 0xE9E PUSH2 0x1204 JUMP JUMPDEST JUMPDEST DUP2 MSTORE PUSH1 0x20 ADD PUSH1 0x2 DUP3 ADD SLOAD DUP2 MSTORE POP POP SWAP3 POP POP POP SWAP3 SWAP2 POP POP JUMP JUMPDEST PUSH1 0x40 MLOAD DUP1 PUSH1 0x80 ADD PUSH1 0x40 MSTORE DUP1 PUSH1 0x60 DUP2 MSTORE PUSH1 0x20 ADD PUSH0 PUSH20 0xFFFFFFFFFFFFFFFFFFFFFFFFFFFFFFFFFFFFFFFF AND DUP2 MSTORE PUSH1 0x20 ADD PUSH0 PUSH1 0x3 DUP2 GT ISZERO PUSH2 0xEF8 JUMPI PUSH2 0xEF7 PUSH2 0x1204 JUMP JUMPDEST JUMPDEST DUP2 MSTORE PUSH1 0x20 ADD PUSH0 DUP2 MSTORE POP SWAP1 JUMP JUMPDEST PUSH0 PUSH1 0x40 MLOAD SWAP1 POP SWAP1 JUMP JUMPDEST PUSH0 PUSH0 REVERT JUMPDEST PUSH0 PUSH0 REVERT JUMPDEST PUSH0 DUP2 SWAP1 POP SWAP2 SWAP1 POP JUMP JUMPDEST PUSH2 0xF27 DUP2 PUSH2 0xF15 JUMP JUMPDEST DUP2 EQ PUSH2 0xF31 JUMPI PUSH0 PUSH0 REVERT JUMPDEST POP JUMP JUMPDEST PUSH0 DUP2 CALLDATALOAD SWAP1 POP PUSH2 0xF42 DUP2 PUSH2 0xF1E JUMP JUMPDEST SWAP3 SWAP2 POP POP JUMP JUMPDEST PUSH0 PUSH1 0x20 DUP3 DUP5 SUB SLT ISZERO PUSH2 0xF5D JUMPI PUSH2 0xF5C PUSH2 0xF0D JUMP JUMPDEST JUMPDEST PUSH0 PUSH2 0xF6A DUP5 DUP3 DUP6 ADD PUSH2 0xF34 JUMP JUMPDEST SWAP2 POP POP SWAP3 SWAP2 POP POP JUMP JUMPDEST PUSH0 DUP2 ISZERO ISZERO SWAP1 POP SWAP2 SWAP1 POP JUMP JUMPDEST PUSH2 0xF87 DUP2 PUSH2 0xF73 JUMP JUMPDEST DUP3 MSTORE POP POP JUMP JUMPDEST PUSH0 PUSH1 0x20 DUP3 ADD SWAP1 POP PUSH2 0xFA0 PUSH0 DUP4 ADD DUP5 PUSH2 0xF7E JUMP JUMPDEST SWAP3 SWAP2 POP POP JUMP JUMPDEST PUSH0 PUSH0 REVERT JUMPDEST PUSH0 PUSH0 REVERT JUMPDEST PUSH0 PUSH1 0x1F NOT PUSH1 0x1F DUP4 ADD AND SWAP1 POP SWAP2 SWAP1 POP JUMP JUMPDEST PUSH32 0x4E487B7100000000000000000000000000000000000000000000000000000000 PUSH0 MSTORE PUSH1 0x41 PUSH1 0x4 MSTORE PUSH1 0x24 PUSH0 REVERT JUMPDEST PUSH2 0xFF4 DUP3 PUSH2 0xFAE JUMP JUMPDEST DUP2 ADD DUP2 DUP2 LT PUSH8 0xFFFFFFFFFFFFFFFF DUP3 GT OR ISZERO PUSH2 0x1013 JUMPI PUSH2 0x1012 PUSH2 0xFBE JUMP JUMPDEST JUMPDEST DUP1 PUSH1 0x40 MSTORE POP POP POP JUMP JUMPDEST PUSH0 PUSH2 0x1025 PUSH2 0xF04 JUMP JUMPDEST SWAP1 POP PUSH2 0x1031 DUP3 DUP3 PUSH2 0xFEB JUMP JUMPDEST SWAP2 SWAP1 POP JUMP JUMPDEST PUSH0 PUSH8 0xFFFFFFFFFFFFFFFF DUP3 GT ISZERO PUSH2 0x1050 JUMPI PUSH2 0x104F PUSH2 0xFBE JUMP JUMPDEST JUMPDEST PUSH2 0x1059 DUP3 PUSH2 0xFAE JUMP JUMPDEST SWAP1 POP PUSH1 0x20 DUP2 ADD SWAP1 POP SWAP2 SWAP1 POP JUMP JUMPDEST DUP3 DUP2 DUP4 CALLDATACOPY PUSH0 DUP4 DUP4 ADD MSTORE POP POP POP JUMP JUMPDEST PUSH0 PUSH2 0x1086 PUSH2 0x1081 DUP5 PUSH2 0x1036 JUMP JUMPDEST PUSH2 0x101C JUMP JUMPDEST SWAP1 POP DUP3 DUP2 MSTORE PUSH1 0x20 DUP2 ADD DUP5 DUP5 DUP5 ADD GT ISZERO PUSH2 0x10A2 JUMPI PUSH2 0x10A1 PUSH2 0xFAA JUMP JUMPDEST JUMPDEST PUSH2 0x10AD DUP5 DUP3 DUP6 PUSH2 0x1066 JUMP JUMPDEST POP SWAP4 SWAP3 POP POP POP JUMP JUMPDEST PUSH0 DUP3 PUSH1 0x1F DUP4 ADD SLT PUSH2 0x10C9 JUMPI PUSH2 0x10C8 PUSH2 0xFA6 JUMP JUMPDEST JUMPDEST DUP2 CALLDATALOAD PUSH2 0x10D9 DUP5 DUP3 PUSH1 0x20 DUP7 ADD PUSH2 0x1074 JUMP JUMPDEST SWAP2 POP POP SWAP3 SWAP2 POP POP JUMP JUMPDEST PUSH0 PUSH0 PUSH1 0x40 DUP4 DUP6 SUB SLT ISZERO PUSH2 0x10F8 JUMPI PUSH2 0x10F7 PUSH2 0xF0D JUMP JUMPDEST JUMPDEST PUSH0 PUSH2 0x1105 DUP6 DUP3 DUP7 ADD PUSH2 0xF34 JUMP JUMPDEST SWAP3 POP POP PUSH1 0x20 DUP4 ADD CALLDATALOAD PUSH8 0xFFFFFFFFFFFFFFFF DUP2 GT ISZERO PUSH2 0x1126 JUMPI PUSH2 0x1125 PUSH2 0xF11 JUMP JUMPDEST JUMPDEST PUSH2 0x1132 DUP6 DUP3 DUP7 ADD PUSH2 0x10B5 JUMP JUMPDEST SWAP2 POP POP SWAP3 POP SWAP3 SWAP1 POP JUMP JUMPDEST PUSH0 DUP2 MLOAD SWAP1 POP SWAP2 SWAP1 POP JUMP JUMPDEST PUSH0 DUP3 DUP3 MSTORE PUSH1 0x20 DUP3 ADD SWAP1 POP SWAP3 SWAP2 POP POP JUMP JUMPDEST PUSH0 DUP2 SWAP1 POP PUSH1 0x20 DUP3 ADD SWAP1 POP SWAP2 SWAP1 POP JUMP JUMPDEST PUSH0 DUP2 MLOAD SWAP1 POP SWAP2 SWAP1 POP JUMP JUMPDEST PUSH0 DUP3 DUP3 MSTORE PUSH1 0x20 DUP3 ADD SWAP1 POP SWAP3 SWAP2 POP POP JUMP JUMPDEST DUP3 DUP2 DUP4 MCOPY PUSH0 DUP4 DUP4 ADD MSTORE POP POP POP JUMP JUMPDEST PUSH0 PUSH2 0x1197 DUP3 PUSH2 0x1165 JUMP JUMPDEST PUSH2 0x11A1 DUP2 DUP6 PUSH2 0x116F JUMP JUMPDEST SWAP4 POP PUSH2 0x11B1 DUP2 DUP6 PUSH1 0x20 DUP7 ADD PUSH2 0x117F JUMP JUMPDEST PUSH2 0x11BA DUP2 PUSH2 0xFAE JUMP JUMPDEST DUP5 ADD SWAP2 POP POP SWAP3 SWAP2 POP POP JUMP JUMPDEST PUSH0 PUSH20 0xFFFFFFFFFFFFFFFFFFFFFFFFFFFFFFFFFFFFFFFF DUP3 AND SWAP1 POP SWAP2 SWAP1 POP JUMP JUMPDEST PUSH0 PUSH2 0x11EE DUP3 PUSH2 0x11C5 JUMP JUMPDEST SWAP1 POP SWAP2 SWAP1 POP JUMP JUMPDEST PUSH2 0x11FE DUP2 PUSH2 0x11E4 JUMP JUMPDEST DUP3 MSTORE POP POP JUMP JUMPDEST PUSH32 0x4E487B7100000000000000000000000000000000000000000000000000000000 PUSH0 MSTORE PUSH1 0x21 PUSH1 0x4 MSTORE PUSH1 0x24 PUSH0 REVERT JUMPDEST PUSH1 0x4 DUP2 LT PUSH2 0x1242 JUMPI PUSH2 0x1241 PUSH2 0x1204 JUMP JUMPDEST JUMPDEST POP JUMP JUMPDEST PUSH0 DUP2 SWAP1 POP PUSH2 0x1252 DUP3 PUSH2 0x1231 JUMP JUMPDEST SWAP2 SWAP1 POP JUMP JUMPDEST PUSH0 PUSH2 0x1261 DUP3 PUSH2 0x1245 JUMP JUMPDEST SWAP1 POP SWAP2 SWAP1 POP JUMP JUMPDEST PUSH2 0x1271 DUP2 PUSH2 0x1257 JUMP JUMPDEST DUP3 MSTORE POP POP JUMP JUMPDEST PUSH2 0x1280 DUP2 PUSH2 0xF15 JUMP JUMPDEST DUP3 MSTORE POP POP JUMP JUMPDEST PUSH0 PUSH1 0x80 DUP4 ADD PUSH0 DUP4 ADD MLOAD DUP5 DUP3 SUB PUSH0 DUP7 ADD MSTORE PUSH2 0x12A0 DUP3 DUP3 PUSH2 0x118D JUMP JUMPDEST SWAP2 POP POP PUSH1 0x20 DUP4 ADD MLOAD PUSH2 0x12B5 PUSH1 0x20 DUP7 ADD DUP3 PUSH2 0x11F5 JUMP JUMPDEST POP PUSH1 0x40 DUP4 ADD MLOAD PUSH2 0x12C8 PUSH1 0x40 DUP7 ADD DUP3 PUSH2 0x1268 JUMP JUMPDEST POP PUSH1 0x60 DUP4 ADD MLOAD PUSH2 0x12DB PUSH1 0x60 DUP7 ADD DUP3 PUSH2 0x1277 JUMP JUMPDEST POP DUP1 SWAP2 POP POP SWAP3 SWAP2 POP POP JUMP JUMPDEST PUSH0 PUSH2 0x12F1 DUP4 DUP4 PUSH2 0x1286 JUMP JUMPDEST SWAP1 POP SWAP3 SWAP2 POP POP JUMP JUMPDEST PUSH0 PUSH1 0x20 DUP3 ADD SWAP1 POP SWAP2 SWAP1 POP JUMP JUMPDEST PUSH0 PUSH2 0x130F DUP3 PUSH2 0x113C JUMP JUMPDEST PUSH2 0x1319 DUP2 DUP6 PUSH2 0x1146 JUMP JUMPDEST SWAP4 POP DUP4 PUSH1 0x20 DUP3 MUL DUP6 ADD PUSH2 0x132B DUP6 PUSH2 0x1156 JUMP JUMPDEST DUP1 PUSH0 JUMPDEST DUP6 DUP2 LT ISZERO PUSH2 0x1366 JUMPI DUP5 DUP5 SUB DUP10 MSTORE DUP2 MLOAD PUSH2 0x1347 DUP6 DUP3 PUSH2 0x12E6 JUMP JUMPDEST SWAP5 POP PUSH2 0x1352 DUP4 PUSH2 0x12F9 JUMP JUMPDEST SWAP3 POP PUSH1 0x20 DUP11 ADD SWAP10 POP POP PUSH1 0x1 DUP2 ADD SWAP1 POP PUSH2 0x132E JUMP JUMPDEST POP DUP3 SWAP8 POP DUP8 SWAP6 POP POP POP POP POP POP SWAP3 SWAP2 POP POP JUMP JUMPDEST PUSH0 PUSH1 0x20 DUP3 ADD SWAP1 POP DUP2 DUP2 SUB PUSH0 DUP4 ADD MSTORE PUSH2 0x1390 DUP2 DUP5 PUSH2 0x1305 JUMP JUMPDEST SWAP1 POP SWAP3 SWAP2 POP POP JUMP JUMPDEST PUSH1 0x4 DUP2 LT PUSH2 0x13A4 JUMPI PUSH0 PUSH0 REVERT JUMPDEST POP JUMP JUMPDEST PUSH0 DUP2 CALLDATALOAD SWAP1 POP PUSH2 0x13B5 DUP2 PUSH2 0x1398 JUMP JUMPDEST SWAP3 SWAP2 POP POP JUMP JUMPDEST PUSH0 PUSH0 PUSH1 0x40 DUP4 DUP6 SUB SLT ISZERO PUSH2 0x13D1 JUMPI PUSH2 0x13D0 PUSH2 0xF0D JUMP JUMPDEST JUMPDEST PUSH0 PUSH2 0x13DE DUP6 DUP3 DUP7 ADD PUSH2 0xF34 JUMP JUMPDEST SWAP3 POP POP PUSH1 0x20 PUSH2 0x13EF DUP6 DUP3 DUP7 ADD PUSH2 0x13A7 JUMP JUMPDEST SWAP2 POP POP SWAP3 POP SWAP3 SWAP1 POP JUMP JUMPDEST PUSH2 0x1402 DUP2 PUSH2 0x11E4 JUMP JUMPDEST DUP2 EQ PUSH2 0x140C JUMPI PUSH0 PUSH0 REVERT JUMPDEST POP JUMP JUMPDEST PUSH0 DUP2 CALLDATALOAD SWAP1 POP PUSH2 0x141D DUP2 PUSH2 0x13F9 JUMP JUMPDEST SWAP3 SWAP2 POP POP JUMP JUMPDEST PUSH0 PUSH0 PUSH0 PUSH1 0x60 DUP5 DUP7 SUB SLT ISZERO PUSH2 0x143A JUMPI PUSH2 0x1439 PUSH2 0xF0D JUMP JUMPDEST JUMPDEST PUSH0 DUP5 ADD CALLDATALOAD PUSH8 0xFFFFFFFFFFFFFFFF DUP2 GT ISZERO PUSH2 0x1457 JUMPI PUSH2 0x1456 PUSH2 0xF11 JUMP JUMPDEST JUMPDEST PUSH2 0x1463 DUP7 DUP3 DUP8 ADD PUSH2 0x10B5 JUMP JUMPDEST SWAP4 POP POP PUSH1 0x20 PUSH2 0x1474 DUP7 DUP3 DUP8 ADD PUSH2 0x140F JUMP JUMPDEST SWAP3 POP POP PUSH1 0x40 PUSH2 0x1485 DUP7 DUP3 DUP8 ADD PUSH2 0x13A7 JUMP JUMPDEST SWAP2 POP POP SWAP3 POP SWAP3 POP SWAP3 JUMP JUMPDEST PUSH2 0x1498 DUP2 PUSH2 0xF15 JUMP JUMPDEST DUP3 MSTORE POP POP JUMP JUMPDEST PUSH0 PUSH1 0x20 DUP3 ADD SWAP1 POP PUSH2 0x14B1 PUSH0 DUP4 ADD DUP5 PUSH2 0x148F JUMP JUMPDEST SWAP3 SWAP2 POP POP JUMP JUMPDEST PUSH0 PUSH0 PUSH1 0x40 DUP4 DUP6 SUB SLT ISZERO PUSH2 0x14CD JUMPI PUSH2 0x14CC PUSH2 0xF0D JUMP JUMPDEST JUMPDEST PUSH0 PUSH2 0x14DA DUP6 DUP3 DUP7 ADD PUSH2 0x140F JUMP JUMPDEST SWAP3 POP POP PUSH1 0x20 PUSH2 0x14EB DUP6 DUP3 DUP7 ADD PUSH2 0xF34 JUMP JUMPDEST SWAP2 POP POP SWAP3 POP SWAP3 SWAP1 POP JUMP JUMPDEST PUSH0 PUSH1 0x80 DUP4 ADD PUSH0 DUP4 ADD MLOAD DUP5 DUP3 SUB PUSH0 DUP7 ADD MSTORE PUSH2 0x150F DUP3 DUP3 PUSH2 0x118D JUMP JUMPDEST SWAP2 POP POP PUSH1 0x20 DUP4 ADD MLOAD PUSH2 0x1524 PUSH1 0x20 DUP7 ADD DUP3 PUSH2 0x11F5 JUMP JUMPDEST POP PUSH1 0x40 DUP4 ADD MLOAD PUSH2 0x1537 PUSH1 0x40 DUP7 ADD DUP3 PUSH2 0x1268 JUMP JUMPDEST POP PUSH1 0x60 DUP4 ADD MLOAD PUSH2 0x154A PUSH1 0x60 DUP7 ADD DUP3 PUSH2 0x1277 JUMP JUMPDEST POP DUP1 SWAP2 POP POP SWAP3 SWAP2 POP POP JUMP JUMPDEST PUSH0 PUSH1 0x20 DUP3 ADD SWAP1 POP DUP2 DUP2 SUB PUSH0 DUP4 ADD MSTORE PUSH2 0x156D DUP2 DUP5 PUSH2 0x14F5 JUMP JUMPDEST SWAP1 POP SWAP3 SWAP2 POP POP JUMP JUMPDEST PUSH0 DUP3 DUP3 MSTORE PUSH1 0x20 DUP3 ADD SWAP1 POP SWAP3 SWAP2 POP POP JUMP JUMPDEST PUSH32 0x696E76616C696420696E6465782E206F7574206F662072616E67650000000000 PUSH0 DUP3 ADD MSTORE POP JUMP JUMPDEST PUSH0 PUSH2 0x15B9 PUSH1 0x1B DUP4 PUSH2 0x1575 JUMP JUMPDEST SWAP2 POP PUSH2 0x15C4 DUP3 PUSH2 0x1585 JUMP JUMPDEST PUSH1 0x20 DUP3 ADD SWAP1 POP SWAP2 SWAP1 POP JUMP JUMPDEST PUSH0 PUSH1 0x20 DUP3 ADD SWAP1 POP DUP2 DUP2 SUB PUSH0 DUP4 ADD MSTORE PUSH2 0x15E6 DUP2 PUSH2 0x15AD JUMP JUMPDEST SWAP1 POP SWAP2 SWAP1 POP JUMP JUMPDEST PUSH32 0x4E487B7100000000000000000000000000000000000000000000000000000000 PUSH0 MSTORE PUSH1 0x11 PUSH1 0x4 MSTORE PUSH1 0x24 PUSH0 REVERT JUMPDEST PUSH0 PUSH2 0x1624 DUP3 PUSH2 0xF15 JUMP JUMPDEST SWAP2 POP PUSH2 0x162F DUP4 PUSH2 0xF15 JUMP JUMPDEST SWAP3 POP DUP3 DUP3 SUB SWAP1 POP DUP2 DUP2 GT ISZERO PUSH2 0x1647 JUMPI PUSH2 0x1646 PUSH2 0x15ED JUMP JUMPDEST JUMPDEST SWAP3 SWAP2 POP POP JUMP JUMPDEST PUSH32 0x4F6E6C79206C61737420656C656D656E742063616E2062652064656C65742077 PUSH0 DUP3 ADD MSTORE PUSH32 0x69746820706F7000000000000000000000000000000000000000000000000000 PUSH1 0x20 DUP3 ADD MSTORE POP JUMP JUMPDEST PUSH0 PUSH2 0x16A7 PUSH1 0x27 DUP4 PUSH2 0x1575 JUMP JUMPDEST SWAP2 POP PUSH2 0x16B2 DUP3 PUSH2 0x164D JUMP JUMPDEST PUSH1 0x40 DUP3 ADD SWAP1 POP SWAP2 SWAP1 POP JUMP JUMPDEST PUSH0 PUSH1 0x20 DUP3 ADD SWAP1 POP DUP2 DUP2 SUB PUSH0 DUP4 ADD MSTORE PUSH2 0x16D4 DUP2 PUSH2 0x169B JUMP JUMPDEST SWAP1 POP SWAP2 SWAP1 POP JUMP JUMPDEST PUSH32 0x4E487B7100000000000000000000000000000000000000000000000000000000 PUSH0 MSTORE PUSH1 0x32 PUSH1 0x4 MSTORE PUSH1 0x24 PUSH0 REVERT JUMPDEST PUSH32 0x4E487B7100000000000000000000000000000000000000000000000000000000 PUSH0 MSTORE PUSH1 0x22 PUSH1 0x4 MSTORE PUSH1 0x24 PUSH0 REVERT JUMPDEST PUSH0 PUSH1 0x2 DUP3 DIV SWAP1 POP PUSH1 0x1 DUP3 AND DUP1 PUSH2 0x174C JUMPI PUSH1 0x7F DUP3 AND SWAP2 POP JUMPDEST PUSH1 0x20 DUP3 LT DUP2 SUB PUSH2 0x175F JUMPI PUSH2 0x175E PUSH2 0x1708 JUMP JUMPDEST JUMPDEST POP SWAP2 SWAP1 POP JUMP JUMPDEST PUSH0 DUP2 SWAP1 POP DUP2 PUSH0 MSTORE PUSH1 0x20 PUSH0 KECCAK256 SWAP1 POP SWAP2 SWAP1 POP JUMP JUMPDEST PUSH0 PUSH1 0x20 PUSH1 0x1F DUP4 ADD DIV SWAP1 POP SWAP2 SWAP1 POP JUMP JUMPDEST PUSH0 DUP3 DUP3 SHL SWAP1 POP SWAP3 SWAP2 POP POP JUMP JUMPDEST PUSH0 PUSH1 0x8 DUP4 MUL PUSH2 0x17C1 PUSH32 0xFFFFFFFFFFFFFFFFFFFFFFFFFFFFFFFFFFFFFFFFFFFFFFFFFFFFFFFFFFFFFFFF DUP3 PUSH2 0x1786 JUMP JUMPDEST PUSH2 0x17CB DUP7 DUP4 PUSH2 0x1786 JUMP JUMPDEST SWAP6 POP DUP1 NOT DUP5 AND SWAP4 POP DUP1 DUP7 AND DUP5 OR SWAP3 POP POP POP SWAP4 SWAP3 POP POP POP JUMP JUMPDEST PUSH0 DUP2 SWAP1 POP SWAP2 SWAP1 POP JUMP JUMPDEST PUSH0 PUSH2 0x1806 PUSH2 0x1801 PUSH2 0x17FC DUP5 PUSH2 0xF15 JUMP JUMPDEST PUSH2 0x17E3 JUMP JUMPDEST PUSH2 0xF15 JUMP JUMPDEST SWAP1 POP SWAP2 SWAP1 POP JUMP JUMPDEST PUSH0 DUP2 SWAP1 POP SWAP2 SWAP1 POP JUMP JUMPDEST PUSH2 0x181F DUP4 PUSH2 0x17EC JUMP JUMPDEST PUSH2 0x1833 PUSH2 0x182B DUP3 PUSH2 0x180D JUMP JUMPDEST DUP5 DUP5 SLOAD PUSH2 0x1792 JUMP JUMPDEST DUP3 SSTORE POP POP POP POP JUMP JUMPDEST PUSH0 PUSH0 SWAP1 POP SWAP1 JUMP JUMPDEST PUSH2 0x184A PUSH2 0x183B JUMP JUMPDEST PUSH2 0x1855 DUP2 DUP5 DUP5 PUSH2 0x1816 JUMP JUMPDEST POP POP POP JUMP JUMPDEST JUMPDEST DUP2 DUP2 LT ISZERO PUSH2 0x1878 JUMPI PUSH2 0x186D PUSH0 DUP3 PUSH2 0x1842 JUMP JUMPDEST PUSH1 0x1 DUP2 ADD SWAP1 POP PUSH2 0x185B JUMP JUMPDEST POP POP JUMP JUMPDEST PUSH1 0x1F DUP3 GT ISZERO PUSH2 0x18BD JUMPI PUSH2 0x188E DUP2 PUSH2 0x1765 JUMP JUMPDEST PUSH2 0x1897 DUP5 PUSH2 0x1777 JUMP JUMPDEST DUP2 ADD PUSH1 0x20 DUP6 LT ISZERO PUSH2 0x18A6 JUMPI DUP2 SWAP1 POP JUMPDEST PUSH2 0x18BA PUSH2 0x18B2 DUP6 PUSH2 0x1777 JUMP JUMPDEST DUP4 ADD DUP3 PUSH2 0x185A JUMP JUMPDEST POP POP JUMPDEST POP POP POP JUMP JUMPDEST PUSH0 DUP3 DUP3 SHR SWAP1 POP SWAP3 SWAP2 POP POP JUMP JUMPDEST PUSH0 PUSH2 0x18DD PUSH0 NOT DUP5 PUSH1 0x8 MUL PUSH2 0x18C2 JUMP JUMPDEST NOT DUP1 DUP4 AND SWAP2 POP POP SWAP3 SWAP2 POP POP JUMP JUMPDEST PUSH0 PUSH2 0x18F5 DUP4 DUP4 PUSH2 0x18CE JUMP JUMPDEST SWAP2 POP DUP3 PUSH1 0x2 MUL DUP3 OR SWAP1 POP SWAP3 SWAP2 POP POP JUMP JUMPDEST PUSH2 0x190E DUP3 PUSH2 0x1165 JUMP JUMPDEST PUSH8 0xFFFFFFFFFFFFFFFF DUP2 GT ISZERO PUSH2 0x1927 JUMPI PUSH2 0x1926 PUSH2 0xFBE JUMP JUMPDEST JUMPDEST PUSH2 0x1931 DUP3 SLOAD PUSH2 0x1735 JUMP JUMPDEST PUSH2 0x193C DUP3 DUP3 DUP6 PUSH2 0x187C JUMP JUMPDEST PUSH0 PUSH1 0x20 SWAP1 POP PUSH1 0x1F DUP4 GT PUSH1 0x1 DUP2 EQ PUSH2 0x196D JUMPI PUSH0 DUP5 ISZERO PUSH2 0x195B JUMPI DUP3 DUP8 ADD MLOAD SWAP1 POP JUMPDEST PUSH2 0x1965 DUP6 DUP3 PUSH2 0x18EA JUMP JUMPDEST DUP7 SSTORE POP PUSH2 0x19CC JUMP JUMPDEST PUSH1 0x1F NOT DUP5 AND PUSH2 0x197B DUP7 PUSH2 0x1765 JUMP JUMPDEST PUSH0 JUMPDEST DUP3 DUP2 LT ISZERO PUSH2 0x19A2 JUMPI DUP5 DUP10 ADD MLOAD DUP3 SSTORE PUSH1 0x1 DUP3 ADD SWAP2 POP PUSH1 0x20 DUP6 ADD SWAP5 POP PUSH1 0x20 DUP2 ADD SWAP1 POP PUSH2 0x197D JUMP JUMPDEST DUP7 DUP4 LT ISZERO PUSH2 0x19BF JUMPI DUP5 DUP10 ADD MLOAD PUSH2 0x19BB PUSH1 0x1F DUP10 AND DUP3 PUSH2 0x18CE JUMP JUMPDEST DUP4 SSTORE POP JUMPDEST PUSH1 0x1 PUSH1 0x2 DUP9 MUL ADD DUP9 SSTORE POP POP POP JUMPDEST POP POP POP POP POP POP JUMP JUMPDEST PUSH0 PUSH2 0x19DE DUP3 PUSH2 0xF15 JUMP JUMPDEST SWAP2 POP PUSH32 0xFFFFFFFFFFFFFFFFFFFFFFFFFFFFFFFFFFFFFFFFFFFFFFFFFFFFFFFFFFFFFFFF DUP3 SUB PUSH2 0x1A10 JUMPI PUSH2 0x1A0F PUSH2 0x15ED JUMP JUMPDEST JUMPDEST PUSH1 0x1 DUP3 ADD SWAP1 POP SWAP2 SWAP1 POP JUMP JUMPDEST PUSH0 PUSH2 0x1A25 DUP3 PUSH2 0x1165 JUMP JUMPDEST PUSH2 0x1A2F DUP2 DUP6 PUSH2 0x1575 JUMP JUMPDEST SWAP4 POP PUSH2 0x1A3F DUP2 DUP6 PUSH1 0x20 DUP7 ADD PUSH2 0x117F JUMP JUMPDEST PUSH2 0x1A48 DUP2 PUSH2 0xFAE JUMP JUMPDEST DUP5 ADD SWAP2 POP POP SWAP3 SWAP2 POP POP JUMP JUMPDEST PUSH0 DUP2 SLOAD PUSH2 0x1A5F DUP2 PUSH2 0x1735 JUMP JUMPDEST PUSH2 0x1A69 DUP2 DUP7 PUSH2 0x1575 JUMP JUMPDEST SWAP5 POP PUSH1 0x1 DUP3 AND PUSH0 DUP2 EQ PUSH2 0x1A83 JUMPI PUSH1 0x1 DUP2 EQ PUSH2 0x1A99 JUMPI PUSH2 0x1ACB JUMP JUMPDEST PUSH1 0xFF NOT DUP4 AND DUP7 MSTORE DUP2 ISZERO ISZERO PUSH1 0x20 MUL DUP7 ADD SWAP4 POP PUSH2 0x1ACB JUMP JUMPDEST PUSH2 0x1AA2 DUP6 PUSH2 0x1765 JUMP JUMPDEST PUSH0 JUMPDEST DUP4 DUP2 LT ISZERO PUSH2 0x1AC3 JUMPI DUP2 SLOAD DUP2 DUP10 ADD MSTORE PUSH1 0x1 DUP3 ADD SWAP2 POP PUSH1 0x20 DUP2 ADD SWAP1 POP PUSH2 0x1AA4 JUMP JUMPDEST DUP1 DUP9 ADD SWAP6 POP POP POP JUMPDEST POP POP POP SWAP3 SWAP2 POP POP JUMP JUMPDEST PUSH2 0x1ADD DUP2 PUSH2 0x1257 JUMP JUMPDEST DUP3 MSTORE POP POP JUMP JUMPDEST PUSH0 PUSH1 0x80 DUP3 ADD SWAP1 POP DUP2 DUP2 SUB PUSH0 DUP4 ADD MSTORE PUSH2 0x1AFB DUP2 DUP8 PUSH2 0x1A1B JUMP JUMPDEST SWAP1 POP DUP2 DUP2 SUB PUSH1 0x20 DUP4 ADD MSTORE PUSH2 0x1B0F DUP2 DUP7 PUSH2 0x1A53 JUMP JUMPDEST SWAP1 POP PUSH2 0x1B1E PUSH1 0x40 DUP4 ADD DUP6 PUSH2 0x1AD4 JUMP JUMPDEST PUSH2 0x1B2B PUSH1 0x60 DUP4 ADD DUP5 PUSH2 0x148F JUMP JUMPDEST SWAP6 SWAP5 POP POP POP POP POP JUMP JUMPDEST PUSH0 PUSH1 0x80 DUP3 ADD SWAP1 POP DUP2 DUP2 SUB PUSH0 DUP4 ADD MSTORE PUSH2 0x1B4C DUP2 DUP8 PUSH2 0x1A53 JUMP JUMPDEST SWAP1 POP DUP2 DUP2 SUB PUSH1 0x20 DUP4 ADD MSTORE PUSH2 0x1B60 DUP2 DUP7 PUSH2 0x1A53 JUMP JUMPDEST SWAP1 POP PUSH2 0x1B6F PUSH1 0x40 DUP4 ADD DUP6 PUSH2 0x1AD4 JUMP JUMPDEST PUSH2 0x1B7C PUSH1 0x60 DUP4 ADD DUP5 PUSH2 0x148F JUMP JUMPDEST SWAP6 SWAP5 POP POP POP POP POP JUMP JUMPDEST PUSH2 0x1B8E DUP2 PUSH2 0x11E4 JUMP JUMPDEST DUP3 MSTORE POP POP JUMP JUMPDEST PUSH0 PUSH1 0x80 DUP3 ADD SWAP1 POP DUP2 DUP2 SUB PUSH0 DUP4 ADD MSTORE PUSH2 0x1BAC DUP2 DUP8 PUSH2 0x1A1B JUMP JUMPDEST SWAP1 POP PUSH2 0x1BBB PUSH1 0x20 DUP4 ADD DUP7 PUSH2 0x1B85 JUMP JUMPDEST PUSH2 0x1BC8 PUSH1 0x40 DUP4 ADD DUP6 PUSH2 0x1AD4 JUMP JUMPDEST PUSH2 0x1BD5 PUSH1 0x60 DUP4 ADD DUP5 PUSH2 0x148F JUMP JUMPDEST SWAP6 SWAP5 POP POP POP POP POP JUMP INVALID LOG2 PUSH5 0x6970667358 0x22 SLT KECCAK256 CODESIZE PUSH24 0x38CAB0648E2E22E3C011FF60F5C30D2919195B6014EE4CDC 0xA8 DUP6 MLOAD 0xE8 0xBA 0xAB PUSH5 0x736F6C6343 STOP ADDMOD 0x1E STOP CALLER "
		},
		"gasEstimates": {
			"creation": {
				"codeDepositCost": "1437600",
				"executionCost": "1497",
				"totalCost": "1439097"
			},
			"external": {
				"createContact(string,address,uint8)": "infinite",
				"deletContact(uint256)": "infinite",
				"updateName(uint256,string)": "infinite",
				"updateRelation(uint256,uint8)": "infinite",
				"viewContact(address,uint256)": "infinite",
				"viewMyContacts()": "infinite"
			}
		},
		"methodIdentifiers": {
			"createContact(string,address,uint8)": "a527604b",
			"deletContact(uint256)": "515e7cc5",
			"updateName(uint256,string)": "53e76f2c",
			"updateRelation(uint256,uint8)": "a0ddb9b9",
			"viewContact(address,uint256)": "f0c44b44",
			"viewMyContacts()": "699d5750"
		}
	},
	"abi": [
		{
			"anonymous": false,
			"inputs": [
				{
					"indexed": true,
					"internalType": "address",
					"name": "user",
					"type": "address"
				},
				{
					"indexed": false,
					"internalType": "string",
					"name": "name",
					"type": "string"
				},
				{
					"indexed": false,
					"internalType": "address",
					"name": "wallet",
					"type": "address"
				},
				{
					"indexed": false,
					"internalType": "enum MyContacts.Relation",
					"name": "relation",
					"type": "uint8"
				},
				{
					"indexed": false,
					"internalType": "uint256",
					"name": "index",
					"type": "uint256"
				}
			],
			"name": "AddContact",
			"type": "event"
		},
		{
			"anonymous": false,
			"inputs": [
				{
					"indexed": true,
					"internalType": "address",
					"name": "user",
					"type": "address"
				},
				{
					"indexed": false,
					"internalType": "uint256",
					"name": "index",
					"type": "uint256"
				}
			],
			"name": "DeletedContact",
			"type": "event"
		},
		{
			"anonymous": false,
			"inputs": [
				{
					"indexed": true,
					"internalType": "address",
					"name": "user",
					"type": "address"
				},
				{
					"indexed": false,
					"internalType": "string",
					"name": "oldName",
					"type": "string"
				},
				{
					"indexed": false,
					"internalType": "string",
					"name": "newName",
					"type": "string"
				},
				{
					"indexed": false,
					"internalType": "enum MyContacts.Relation",
					"name": "newRelation",
					"type": "uint8"
				},
				{
					"indexed": false,
					"internalType": "uint256",
					"name": "index",
					"type": "uint256"
				}
			],
			"name": "UpdateContact",
			"type": "event"
		},
		{
			"inputs": [
				{
					"internalType": "string",
					"name": "_name",
					"type": "string"
				},
				{
					"internalType": "address",
					"name": "_wallet",
					"type": "address"
				},
				{
					"internalType": "enum MyContacts.Relation",
					"name": "_relation",
					"type": "uint8"
				}
			],
			"name": "createContact",
			"outputs": [
				{
					"internalType": "uint256",
					"name": "index",
					"type": "uint256"
				}
			],
			"stateMutability": "nonpayable",
			"type": "function"
		},
		{
			"inputs": [
				{
					"internalType": "uint256",
					"name": "_index",
					"type": "uint256"
				}
			],
			"name": "deletContact",
			"outputs": [
				{
					"internalType": "bool",
					"name": "ok",
					"type": "bool"
				}
			],
			"stateMutability": "nonpayable",
			"type": "function"
		},
		{
			"inputs": [
				{
					"internalType": "uint256",
					"name": "_index",
					"type": "uint256"
				},
				{
					"internalType": "string",
					"name": "_newDescription",
					"type": "string"
				}
			],
			"name": "updateName",
			"outputs": [],
			"stateMutability": "nonpayable",
			"type": "function"
		},
		{
			"inputs": [
				{
					"internalType": "uint256",
					"name": "_index",
					"type": "uint256"
				},
				{
					"internalType": "enum MyContacts.Relation",
					"name": "_newRelation",
					"type": "uint8"
				}
			],
			"name": "updateRelation",
			"outputs": [],
			"stateMutability": "nonpayable",
			"type": "function"
		},
		{
			"inputs": [
				{
					"internalType": "address",
					"name": "_user",
					"type": "address"
				},
				{
					"internalType": "uint256",
					"name": "_index",
					"type": "uint256"
				}
			],
			"name": "viewContact",
			"outputs": [
				{
					"components": [
						{
							"internalType": "string",
							"name": "name",
							"type": "string"
						},
						{
							"internalType": "address",
							"name": "wallet",
							"type": "address"
						},
						{
							"internalType": "enum MyContacts.Relation",
							"name": "relation",
							"type": "uint8"
						},
						{
							"internalType": "uint256",
							"name": "counterUpdates",
							"type": "uint256"
						}
					],
					"internalType": "struct MyContacts.Contact",
					"name": "",
					"type": "tuple"
				}
			],
			"stateMutability": "view",
			"type": "function"
		},
		{
			"inputs": [],
			"name": "viewMyContacts",
			"outputs": [
				{
					"components": [
						{
							"internalType": "string",
							"name": "name",
							"type": "string"
						},
						{
							"internalType": "address",
							"name": "wallet",
							"type": "address"
						},
						{
							"internalType": "enum MyContacts.Relation",
							"name": "relation",
							"type": "uint8"
						},
						{
							"internalType": "uint256",
							"name": "counterUpdates",
							"type": "uint256"
						}
					],
					"internalType": "struct MyContacts.Contact[]",
					"name": "",
					"type": "tuple[]"
				}
			],
			"stateMutability": "view",
			"type": "function"
		}
	]
}